:100000000C943E000C94F9060C945B000C945B007D
:100010000C945B000C945B000C945B000C945B00F4
:100020000C945B000C9415080C94A7070C945B00CF
:100030000C945B000C9484070C945B000C945B00A4
:100040000C9461070C945B000C94B8100C945B004A
:100050000C945B000C945B000C945B000C945B00B4
:100060000C945B000C945B005A0A450A300A180A8B
:10007000000AE809D009B5096F0A4F0911241FBE0B
:10008000CFEFD8E0DEBFCDBF11E0A0E0B1E0E6E108
:10009000FDE202C005900D92AA3CB107D9F722E01B
:1000A000AAECB1E001C01D92A438B207E1F70E94AA
:1000B000F2100C9489160C9400008DE9EBECF1E041
:1000C000DF011D928A95E9F7E1E8F0E08081826026
:1000D000808385B5826085BDE1EBF0E0808184603E
:1000E00080830895FC0180818F3F19F080818F5FAC
:1000F000808308958F929F92AF92BF92CF92DF92AA
:10010000EF92FF926B017C0181E4C81682E4D8066D
:100110008FE0E806F10408F049C0C114D104E104FD
:10012000F10401F58BE092E09F938F9324E331E09B
:100130003F932F931F9220E42F939F938F930E94BE
:10014000A4138DB79EB708960FB6F8949EBF0FBE46
:100150008DBFFF90EF90DF90CF90BF90AF909F90BA
:100160008F900895C701B60128EE33E040E050E0DB
:100170000E940E117F936F933F932F938BE092E039
:100180009F938F932AE231E03F932F931F9220E4B5
:100190002F939F938F930E94A4138DB79EB70C96B5
:1001A0000FB6F8949EBF0FBE8DBFD3CF88EE882EBA
:1001B00083E0982EA12CB12CC701B601A5019401B2
:1001C0000E940E117F936F93CA01B901A50194019A
:1001D0000E940E117F936F93C701B60120E432E4B1
:1001E0004FE050E00E940E113F932F938BE092E07E
:1001F0009F938F932CE131E03F932F931F9220E444
:100200002F939F938F930E94A4138DB79EB70E9642
:100210000FB6F8949EBF0FBE8DBF9BCF4F925F92DB
:100220006F927F928F929F92AF92BF92CF92DF9206
:10023000EF92FF920F931F93CF93DF93CDB7DEB76B
:100240002A970FB6F894DEBF0FBECDBF19821A826F
:100250001B821C82FE01359686E0DF011D928A9585
:10026000E9F78091540290915502A0915602B09105
:100270005702883E9340A105B10508F4C3C08091A0
:10028000540290915502A0915602B09157028034C9
:100290009244AF40B10508F47DC060915402709162
:1002A000550280915602909157024090540250900E
:1002B00055026090560270905702809054029090C0
:1002C0005502A0905602B090570228EEC22E23E0AD
:1002D000D22EE12CF12CA70196010E940E117F93E2
:1002E0006F93C301B201A70196010E940E11CA01CA
:1002F000B901A70196010E940E117F936F93C5016A
:10030000B40120E432E44FE050E00E940E113F932C
:100310002F9383E491E09F938F931F928AE08F93B2
:100320008E010F5F1F4F1F930F930E94A4130FB6F0
:10033000F894DEBF0FBECDBF1F930F931F9282E0D4
:100340008F938EE491E09F938F931F9280E48F931D
:100350008BE092E09F938F930E94A4130FB6F894C2
:10036000DEBF0FBECDBF2A960FB6F894DEBF0FBE1C
:10037000CDBFDF91CF911F910F91FF90EF90DF9054
:10038000CF90BF90AF909F908F907F906F905F9035
:100390004F900895609154027091550280915602D9
:1003A000909157028090540290905502A09056026E
:1003B000B090570238EEC32E33E0D32EE12CF12C4F
:1003C000A70196010E940E117F936F93C501B4019E
:1003D000A70196010E940E113F932F938CE391E0A9
:1003E0009F938F931F928AE08F938E010F5F1F4F11
:1003F0001F930F930E94A4130FB6F894DEBF0FBE95
:10040000CDBF9ACF8091540290915502A09156028F
:10041000B09157029F938F9389E391E09F938F93BD
:100420001F928AE08F938E010F5F1F4F1F930F93D0
:100430000E94A4130FB6F894DEBF0FBECDBF7CCFD1
:100440004F925F926F927F928F929F92AF92BF92E4
:10045000CF92DF92EF92FF920F931F93CF93DF9390
:10046000CDB7DEB764970FB6F894DEBF0FBECDBF31
:100470001B861C861D861E8686E0FE013F96DF01D8
:10048000282F1D922A95E9F719821A821B821C8255
:100490003A97DF011D928A95E9F780915002909179
:1004A0005102A0915202B091530281349244AF4064
:1004B000B10508F004C18091500290915102A091C1
:1004C0005202B0915302893E9340A105B10508F054
:1004D00086C08091500290915102A0915202B09139
:1004E00053029F938F9389E391E09F938F931F9281
:1004F0008AE08F938E01055F1F4F1F930F930E9419
:10050000A4130FB6F894DEBF0FBECDBF8091540286
:1005100090915502A0915602B091570281349244B5
:10052000AF40B10508F01BC1809154029091550273
:10053000A0915602B0915702893E9340A105B105A2
:1005400008F085C08091540290915502A091560206
:10055000B09157029F938F9389E391E09F938F937C
:100560001F928AE08F93CE0101967C019F938F9317
:100570000E94A4130FB6F894DEBF0FBECDBF1F9329
:100580000F93FF92EF921F9282E08F9384E591E0A8
:100590009F938F931F9280E48F938BE092E09F93C1
:1005A0008F930E94A4130FB6F894DEBF0FBECDBF89
:1005B00064960FB6F894DEBF0FBECDBFDF91CF912A
:1005C0001F910F91FF90EF90DF90CF90BF90AF9071
:1005D0009F908F907F906F905F904F900895609163
:1005E000500270915102809152029091530280907A
:1005F000500290905102A0905202B090530248EEE7
:10060000C42E43E0D42EE12CF12CA70196010E94C8
:100610000E117F936F93C501B401A70196010E944B
:100620000E113F932F938CE391E09F938F931F9232
:100630008AE08F938E01055F1F4F1F930F930E94D7
:10064000A4130FB6F894DEBF0FBECDBF5FCF60918D
:1006500054027091550280915602909157028090F9
:10066000540290905502A0905602B090570228EE86
:10067000C22E23E0D22EE12CF12CA70196010E947C
:100680000E117F936F93C501B401A70196010E94DB
:100690000E113F932F938CE391E09F938F931F92C2
:1006A0008AE08F93CE0101967C019F938F930E94E5
:1006B000A4130FB6F894DEBF0FBECDBF60CF60911C
:1006C00050027091510280915202909153024090D9
:1006D00050025090510260905202709053028090EC
:1006E000500290905102A0905202B090530258EEE6
:1006F000C52E53E0D52EE12CF12CA70196010E94C6
:100700000E117F936F93C301B201A70196010E945E
:100710000E11CA01B901A70196010E940E117F9323
:100720006F93C501B40120E432E44FE050E00E9431
:100730000E113F932F9383E491E09F938F931F9229
:100740008AE08F938E01055F1F4F1F930F930E94C6
:10075000A4130FB6F894DEBF0FBECDBFD7CE609105
:100760005402709155028091560290915702409028
:10077000540250905502609056027090570280903B
:10078000540290905502A0905602B090570238EE55
:10079000C32E33E0D32EE12CF12CA70196010E9449
:1007A0000E117F936F93C301B201A70196010E94BE
:1007B0000E11CA01B901A70196010E940E117F9383
:1007C0006F93C501B40120E432E44FE050E00E9491
:1007D0000E113F932F9383E491E09F938F931F9289
:1007E0008AE08F93CE0101967C019F938F930E94A4
:1007F000A4130FB6F894DEBF0FBECDBFC0CE3F939B
:100800002F931F924F931F926F931F928F931F925C
:1008100082E08F938DE591E09F938F931F9280E408
:100820008F938BE092E09F938F930E94A4138DB7D8
:100830009EB740960FB6F8949EBF0FBE8DBF089529
:100840002091B2008091600290916102A0916202B9
:10085000B0916302BA2FA92F982F8827820F911D7C
:10086000A11DB11DBC01CD01660F771F881F991F07
:10087000660F771F881F991F08956115710571F123
:100880004115510559F1FB01460F571F382F292FEC
:100890008191082E000C990B822793279C01332706
:1008A000329522952F7023273F7023272827392739
:1008B000C901982F88279295907F28273927C90149
:1008C0009927880F991F82959295907F9827807F0E
:1008D000982782279327E417F507C1F608950F9309
:1008E0001F93CF93DF93CDB7DEB72D970FB6F89454
:1008F000DEBF0FBECDBF19821A821B821C82FE0191
:10090000359686E0DF011D928A95E9F7AE01455FD5
:100910005F4FBE01645F7F4FCE010D960E94870E30
:100920002AE030E08E010F5F1F4FA801BE01645F17
:100930007F4FCE010D960E94BD0D1F930F938B85A7
:100940001F928F938C851F928F938D851F928F930B
:100950001F9282E08F938DE591E09F938F931F927A
:1009600080E48F930BE012E01F930F930E94A41377
:10097000F80101900020E9F7AF014C505240B80156
:100980008FEF9FEF0E943D041F9223E02F939F93D0
:100990008F931F930F938CE691E09F938F930E9408
:1009A0008E13F80101900020E9F7AF014C5052403E
:1009B0000FB6F894DEBF0FBECDBF60E070E0C80197
:1009C0002D960FB6F894DEBF0FBECDBFDF91CF914D
:1009D0001F910F910C948713CF92DF92EF92FF92A9
:1009E000CF93DF936B017C0181E08093670280915C
:1009F00081008F7B8093810080916F008162809362
:100A00006F0080916702811105C080916602882382
:100A100009F448C02091B200809160029091610277
:100A2000A0916202B0916302BA2FA92F982F882754
:100A3000820F911DA11DB11D880F991FAA1FBB1FF9
:100A4000880F991FAA1FBB1F8C199D09AE09BF09EA
:100A50008132914AA740B105A0F2F8941092650244
:100A6000809181008F7B8093810080916F008F7DCA
:100A700080936F00109267021092540210925502F8
:100A80001092560210925702109287001092860020
:100A900010925C0210925D0210925E0210925F0250
:100AA0007894AFCF0E940E01C701B6010E947A0070
:100AB000CBE0D2E0FE0101900020E9F7AF014C50FD
:100AC0005240BE018FEF9FEF0E943D041F9223E032
:100AD0002F939F938F93DF93CF938CE691E09F9317
:100AE0008F930E948E1309900020E9F7AE014C50BD
:100AF00052408DB79EB708960FB6F8949EBF0FBEB2
:100B00008DBF60E070E08BE092E0DF91CF91FF90CD
:100B1000EF90DF90CF900C948713CF92DF92EF92FB
:100B2000FF92CF93DF936B017C0181E0809367029A
:100B30008093660210926402109265028091810097
:100B40008F7B8093810080916F00816280936F0022
:100B50008091690082608093690080916E0081605D
:100B600080936E00E89A80916702811105C08091A0
:100B70006602882309F470C02091B200809160025F
:100B800090916102A0916202B0916302BA2FA92FE5
:100B9000982F8827820F911DA11DB11D880F991FC5
:100BA000AA1FBB1F880F991FAA1FBB1F8C199D0965
:100BB000AE09BF098132914AA740B105A0F2F8946D
:100BC00080916E008E7F80936E00E8981092640290
:100BD000809169008E7F80936900109265028091F8
:100BE00081008F7B8093810080916F008F7D809347
:100BF0006F00809167028823B1F010926702109213
:100C000054021092550210925602109257021092FE
:100C100087001092860010925C0210925D02109282
:100C20005E0210925F0280916602882399F0109212
:100C300050021092510210925202109253021092DE
:100C4000660216BC109258021092590210925A0273
:100C500010925B02789487CF0E942002C701B601F0
:100C60000E947A00CBE0D2E0FE0101900020E9F77B
:100C7000AF014C505240BE018FEF9FEF0E943D04E8
:100C80001F9223E02F939F938F93DF93CF938CE654
:100C900091E09F938F930E948E1309900020E9F7B3
:100CA000AE014C5052408DB79EB708960FB6F894DF
:100CB0009EBF0FBE8DBF60E070E08BE092E0DF91E1
:100CC000CF91FF90EF90DF90CF900C94871381E04D
:100CD0000E948B108823E9F08091CB018D36C9F1F9
:100CE0008091CB018237B1F08091CB01833709F439
:100CF0004FC08091CB01873609F461C08091CB0150
:100D0000853609F473C0F89410924C0210924B028D
:100D1000789408952091B2008091600290916102D0
:100D2000A0916202B0916302BA2FA92F982F882751
:100D3000820F911DA11DB11DBC01CD01660F771F52
:100D4000881F991F660F771F881F991F0E94EC0448
:100D5000DACF2091B2008091600290916102A0915F
:100D60006202B0916302BA2FA92F982F8827820FB1
:100D7000911DA11DB11DBC01CD01660F771F881FFC
:100D8000991F660F771F881F991F0E948D05BBCF83
:100D9000F8941092B20010926002109261021092C8
:100DA00062021092630280917000816080937000F3
:100DB000789460E070E0CB010E948D05A4CFF89498
:100DC0001092B200109260021092610210926202C0
:100DD000109263028091700081608093700078941B
:100DE00060E070E0CB010E94EC048DCF0E946F04A4
:100DF0008ACF1F920F920FB60F9211242F938F93C9
:100E00009F93AF93BF9380916402882309F43DC000
:100E100080916402813009F443C0F89480916E009F
:100E20008E7F80936E00E89826B58091580290914D
:100E30005902A0915A02B0915B02BA2FA92F982FA4
:100E40008827820F911DA11DB11DB695A795979575
:100E500087958093500290935102A0935202B093D1
:100E600053021092640210926602809169008E7F94
:100E7000809369007894BF91AF919F918F912F914A
:100E80000F900FBE0F901F9018958091690083609E
:100E900080936900809164028F5F80936402EBCF3E
:100EA000F89416BC109258021092590210925A02ED
:100EB00010925B027894809164028F5F8093640249
:100EC000DACF1F920F920FB60F9211248F939F9338
:100ED000AF93BF93EF93FF93E8E5F2E080819181B8
:100EE000A281B3810196A11DB11D80839183A2834C
:100EF000B383FF91EF91BF91AF919F918F910F902D
:100F00000FBE0F901F9018951F920F920FB60F9261
:100F100011248F939F93AF93BF93EF93FF93ECE5CF
:100F2000F2E080819181A281B3810196A11DB11D62
:100F300080839183A283B383FF91EF91BF91AF919F
:100F40009F918F910F900FBE0F901F9018951F9239
:100F50000F920FB60F9211242F933F938F939F936D
:100F6000AF93BF9380916502882309F43FC08091BD
:100F70006502813009F445C0F89410926502209111
:100F800086003091870080915C0290915D02A09173
:100F90005E02B0915F02DC0199278827820F931FC0
:100FA000A11DB11DB695A79597958795809354027D
:100FB00090935502A0935602B093570280918100FE
:100FC0008F7B8093810080916F008F7D80936F0075
:100FD000789410926702BF91AF919F918F913F914A
:100FE0002F910F900FBE0F901F9018958091810048
:100FF000806480938100809165028F5F8093650299
:10100000EACFF894109285001092840010925C024E
:1010100010925D0210925E0210925F0278948091AD
:1010200065028F5F80936502D6CF1F920F920FB635
:101030000F9211248F939F93AF93BF93EF93FF93DE
:10104000E0E6F2E080819181A281B3810196A11D49
:10105000B11D80839183A283B383FF91EF91BF91F0
:10106000AF919F918F910F900FBE0F901F90189589
:1010700090914C02992391F080914E028F3F29F07C
:1010800080914E028F5F80934E0285E791E09F939F
:101090008F930E948E130F900F90089590914B02A2
:1010A000911103C0823021F1089590914B0291116A
:1010B00023C0833041F180914B02803498F010922C
:1010C0004B0280914D028F3F29F080914D028F5F3E
:1010D00080934D0283EA91E09F938F930E948E1339
:1010E0000F900F9080914B028F5F80934B02089579
:1010F00090914B029923F9F2E0914B02F0E0E65314
:10110000FE4F8083D6CF81E080934C020E94711005
:10111000E9CF84E98093BC0008951092BC0094EA62
:101120009093BC009091BC0097FFFCCF9091B900C8
:10113000987F983011F081E008958093BB0084E897
:101140008093BC008091BC0087FFFCCF8091B900E8
:10115000887F883111F0803471F780E008958093A2
:10116000BB0084E88093BC008091BC0087FFFCCF6B
:101170009091B900987F81E0983209F0089580E05D
:10118000089584EC8093BC008091BC0087FFFCCF65
:101190008091BB00089584E98093BC0008952F924C
:1011A0003F924F925F926F927F928F929F92AF92F7
:1011B000BF92CF92DF92EF92FF920F931F93CF9344
:1011C000DF93CDB7DEB72E970FB6F894DEBF0FBE14
:1011D000CDBF3C018BA09CA0ADA0BEA0CFA0D8A449
:1011E000E9A4FAA44BA55CA55E874D874DA55EA535
:1011F0005C874B874FA558A95A87498749A95AA99F
:1012000058874F834BA95CA95E834D834DA95EA986
:101210005A8349834FA958AD5C834B8301E084E82E
:10122000382E94E9592E24EC422E1FEF100F84E53E
:10123000800F282E220C8EEE0E948D082092BB007B
:101240003092BC008091BC0087FFFCCF8091B90038
:101250005092BC008FEE0E948D08812F90E0FC011F
:101260003197EA30F10508F47CC04092BC008091CF
:10127000BC0087FFFCCF8090BB00912C982C882469
:101280004092BC008091BC0087FFFCCF8091BB00E6
:10129000882A5092BC000B30F1F00F5FC6CF84EC6F
:1012A0008093BC008091BC0087FFFCCF2091BB00E5
:1012B00030E0322F222784EC8093BC008091BC0068
:1012C00087FFFCCF8091BB00A901482B5C834B8337
:1012D00084E98093BC009CA28BA2BEA2ADA2D8A63A
:1012E000CFA2FAA6E9A64D855E855CA74BA74B85E4
:1012F0005C855EA74DA749855A8558AB4FA74F819E
:1013000058855AAB49AB4D815E815CAB4BAB498193
:101310005A815EAB4DAB4B815C8158AF4FAB86E4DD
:10132000FE01B396D30101900D928A95E1F7C301B6
:101330002E960FB6F894DEBF0FBECDBFDF91CF91D2
:101340001F910F91FF90EF90DF90CF90BF90AF90E3
:101350009F908F907F906F905F904F903F902F90D5
:101360000895EC5CFF4F0C944F114092BC008091AB
:10137000BC0087FFFCCF2091BB0030E0322F22273A
:101380004092BC008091BC0087FFFCCF8091BB00E5
:10139000A901482B5E834D835092BC000F5F45CF5F
:1013A0004092BC008091BC0087FFFCCF2091BB0025
:1013B00030E0322F22274092BC008091BC0087FF92
:1013C000FCCF8091BB00A901482B58874F83E4CF05
:1013D0004092BC008091BC0087FFFCCF2091BB00F5
:1013E00030E0322F22274092BC008091BC0087FF62
:1013F000FCCF8091BB00A901482B5A874987CCCFED
:101400004092BC008091BC0087FFFCCF2091BB00C4
:1014100030E0322F22274092BC008091BC0087FF31
:10142000FCCF8091BB00A901482B5C874B87B4CFD0
:101430004092BC008091BC0087FFFCCF2091BB0094
:1014400030E0322F22274092BC008091BC0087FF01
:10145000FCCF8091BB00A901482B5E874D879CCFB4
:101460004092BC008091BC0087FFFCCFE090BB00A5
:10147000F12CFE2CEE244092BC008091BC0087FF32
:10148000FCCF8091BB00E82A87CF4092BC008091BE
:10149000BC0087FFFCCFC090BB00D12CDC2CCC243F
:1014A0004092BC008091BC0087FFFCCF8091BB00C4
:1014B000C82A72CF4092BC008091BC0087FFFCCF4D
:1014C000A090BB00B12CBA2CAA244092BC00809101
:1014D000BC0087FFFCCF8091BB00A82A5DCF409263
:1014E000BC008091BC0087FFFCCF2091BB0030E0A6
:1014F000322F22274092BC008091BC0087FFFCCF96
:101500008091BB00A901482B5A83498345CF4F9254
:101510005F926F927F928F929F92AF92BF92CF9283
:10152000DF92EF92FF920F931F93CF93DF93CDB78C
:10153000DEB78C018EEE0E948D0884EF8093BB0095
:1015400084E88093BC009091BC0097FFFCCF809111
:10155000B9008EE28093BB0084E88093BC00909138
:10156000BC0097FFFCCF8091B90084E98093BC0058
:101570008FE496E40197F1F700C000008EEE0E9420
:101580008D0886EF8093BB0084E88093BC00909127
:10159000BC0097FFFCCF8091B90084E98093BC0028
:1015A0008FEE0E948D0884EC8093BC009091BC006B
:1015B00097FFFCCFC090BB00D12CDC2CCC24E12CBD
:1015C000F12C84EC8093BC009091BC0097FFFCCF81
:1015D0008091BB00C82A84E98093BC008D8D9E8DCC
:1015E000A7019601281B390B41095109AB8DBC8D10
:1015F0000E9464110E948E1220E030E040E058E327
:101600000E941A130E9456124B015C016DA17EA12B
:10161000072E000C880B990B0E948E1220E030E000
:1016200040E055E40E941A132B013C016FA178A5FC
:10163000CB01770FAA0BBB0BBC01CD01680D791D47
:101640008A1D9B1D0E948E129B01AC01C301B20139
:101650000E94E4110E94561224013501460E571EC5
:10166000681E791EC9A6DAA6EBA6FCA689AA9AAAC4
:10167000ABAABCAA6DAB7EAB8FAB98AF29964CAE34
:101680005DAE6EAE7FAE2997C301B201685F7F4F3A
:101690008F4F9F4F0E948E1220E030E040E85DE3C4
:1016A0000E941A130E94561265966CAF7DAF8EAFE2
:1016B0009FAF659786E4FE017396D80101900D9265
:1016C0008A95E1F7C801DF91CF911F910F91FF90AB
:1016D000EF90DF90CF90BF90AF909F908F907F90D2
:1016E0006F905F904F9008954F925F926F927F92AC
:1016F0008F929F92AF92BF92CF92DF92EF92FF9222
:101700000F931F93CF93DF93CDB7DEB768970FB6D4
:10171000F894DEBF0FBECDBF8C018EEE0E948D0807
:1017200084EF8093BB0084E88093BC008091BC0070
:1017300087FFFCCF8091B90084E38093BB0084E8ED
:101740008093BC008091BC0087FFFCCF8091B900E2
:1017500084E98093BC008FE39CE90197F1F700C016
:1017600000008EEE0E948D0886EF8093BB0084E817
:101770008093BC008091BC0087FFFCCF8091B900B2
:1017800084E98093BC008FEE0E948D0884EC8093E6
:10179000BC008091BC0087FFFCCF4091BB0050E0B3
:1017A000542F442760E070E084EC8093BC0080916B
:1017B000BC0087FFFCCF8091BB006A017B01C82A77
:1017C000CD82DE82EF82F88684E98093BC00A19608
:1017D0008CAD9DADAEADBFADA1972C013D0120EA12
:1017E000421A2FE0520A61087108A3019201C30155
:1017F000B2010E94FE100E948E1220E030E040E80C
:1018000059E30E941A136B017C016BA57CA5072E7E
:10181000000C880B990B0E948E1220E030E040E80B
:1018200050E40E941A134B015C0169AD7AAD072E9A
:10183000000C880B990B0E948E12A70196010E9442
:101840001A1320E030E040E05AE30E941A130E948D
:10185000561269837A838B839C83ADA5BEA5A301B1
:1018600092010E946F110E948E1220E030E040E051
:101870005AE30E941A130E94561229813A814B8121
:101880005C81620F731F841F951F0E948E129B0143
:10189000AC01C501B4010E94781120E030E040E0C5
:1018A00050E40E94781120E030E040E85EE30E94BE
:1018B0001A130E94561269837A838B839C83AFA587
:1018C000B8A9A30192010E946F110E948E1220E01C
:1018D00030E040E059E30E941A130E9456124B0177
:1018E0005C016FA978AD072E000C880B990B0E9444
:1018F0008E129B01AC01C701B6010E941A1320E0B1
:1019000030E040E857E30E941A130E945612DC01AF
:10191000CB01880D991DAA1DBB1DBC01CD016E5FB9
:101920007F4F8F4F9F4F0E948E1220E030E040E8A3
:101930005EE30E941A130E94561269877A878B878A
:101940009C879B01AC0130584F4F5F4FA9A9BAA9A2
:101950000E9464110E948C1220E030E040E058E3C5
:101960000E941A130E9456126D877E878F87988B6C
:101970002D813E814F815885C980DA80EB80FC80C3
:101980002C193D094E095F09A0E5B3EC0E946411D2
:101990004B015C0197FDDCC00E948E129B01AC01E3
:1019A0000E9478116B017C016D857E858F859889F9
:1019B0000E948E129B01AC01C701B6010E94E41186
:1019C0000E945612698B7A8B8B8B9C8B69897A89E2
:1019D0008B899C890E948E126B017C0120E030E093
:1019E00040E85BE30E941A139B01AC010E941A13AA
:1019F0000E9456129B01AC01AEEDBBE00E94641147
:101A00000E948E1220E030E040E857E30E941A1353
:101A10000E9456126D8B7E8B8F8B988FA3E4B3EE52
:101A200029893A894B895C890E9472110E948E1221
:101A300020E030E040E857E30E941A130E9456125B
:101A40002D813E814F81588529962CAF3DAF4EAFF9
:101A50005FAF29972D893E894F89588D2D962CAFE0
:101A60003DAF4EAF5FAF2D9761966CAF7DAF8EAF40
:101A70009FAF619729853A854B855C8565962CAF2C
:101A80003DAF4EAF5FAF659729813A814B815C8155
:101A900069962CAF3DAF4EAF5FAF69972D853E8500
:101AA0004F8558896D962CAF3DAF4EAF5FAF6D97A8
:101AB000A5964CAE5DAE6EAE7FAEA597A9968CAEE8
:101AC0009DAEAEAEBFAEA9972D893E894F89588D88
:101AD000260F371F481F591FCA01B9016153714FA3
:101AE0008F4F9F4F0E948E1220E030E040E85DE370
:101AF0000E941A139B01AC01C701B6010E94781124
:101B00000E945612E1966CAF7DAF8EAF9FAFE1970A
:101B100086E4FE01BB96D80101900D928A95E1F70B
:101B2000C80168960FB6F894DEBF0FBECDBFDF9137
:101B3000CF911F910F91FF90EF90DF90CF90BF90CA
:101B4000AF909F908F907F906F905F904F9008958F
:101B50002D853E854F8558890E943011CA01B901F3
:101B60000E948E129B01AC010E9478110E945612B5
:101B7000698B7A8B8B8B9C8B29CFCF93DF93CDB7DF
:101B8000DEB7C059D1090FB6F894DEBF0FBECDBF86
:101B90008DB79EB7865491090FB6F8949EBF0FBEBD
:101BA0008DBFADB7BEB7119686E4FE0131960190A8
:101BB0000D928A95E1F7CE010196C157DF4F288338
:101BC000CF58D040C057DF4F3883C059D040C3579B
:101BD000DF4F4883CD58D040C257DF4F5883CE588F
:101BE000D0400E94CF088DB79EB78A5B9F4F0FB63B
:101BF000F894DEBF0FBECDBF865491090FB6F8949E
:101C00009EBF0FBE8DBFADB7BEB7119686E4FE0175
:101C1000319601900D928A95E1F7CE01895B9F4F35
:101C20000E94870A86E4FE01E95BFF4FDE01119600
:101C300001900D928A95E1F78DB79EB78A5B9F4F11
:101C40000FB6F894DEBF0FBECDBF865491090FB614
:101C5000F8949EBF0FBE8DBFADB7BEB7119686E498
:101C6000FE01319601900D928A95E1F7CE01895BD4
:101C70009F4F0E94740B86E4FE01E95BFF4FDE017B
:101C8000119601900D928A95E1F70FB6F894DEBF98
:101C90000FBECDBF27968FAD27978F9326968FAD1A
:101CA00026978F9325968FAD25978F9324968FAD8A
:101CB00024978F9382EC91E09F938F93C057DF4FCF
:101CC0003881C059D0403F93C157DF4F2881CF584A
:101CD000D0402F93C257DF4F5881CE58D0405F93EA
:101CE000C357DF4F4881CD58D0404F930E94A41373
:101CF0000FB6F894DEBF0FBECDBFC057DF4F0FB693
:101D0000F894DEBF0FBECDBFDF91CF9108958F92C3
:101D10009F92AF92BF92CF92DF92EF92FF920F937A
:101D20001F93CF93DF9300D000D01F92CDB7DEB7C3
:101D30006C01FE01319685E0DF011D928A95E9F77D
:101D4000569A5E9ABFEF21EE34E0B1502040304009
:101D5000E1F700C000005E988FEC97E00197F1F783
:101D600000C000005E9A569895ED9A95F1F7000034
:101D700089B1AFE3B1E01197F1F700C0000089B17C
:101D80008FE391E00197F1F700C000008F017E0121
:101D900096E0E90EF11CA1E0B0E027E030E090E031
:101DA0004E9BFECFE0EAEA95F1F74E9B07C0FD019E
:101DB000022E01C0EE0F0A94EAF79E2B4E99FECF39
:101DC0002150310968F7F80191938F01EE15FF0555
:101DD00021F7569A5E9AFFEF21EE34E0F150204051
:101DE0003040E1F700C0000039810A812B819C81DD
:101DF000802F830F820F890FED818E1791F00F9046
:101E00000F900F900F900F90DF91CF911F910F9136
:101E1000FF90EF90DF90CF90BF90AF909F908F900A
:101E200008957A015B01460110E0132B892F90E0A1
:101E30006C01D22AD7FC3AC0B60180E090E00E9443
:101E40008C1220E030E040E251E40E94E4110E9454
:101E50005612D4016C939601ADECBCEC0E94551166
:101E60009695879596958795969587959C01220FCF
:101E7000331F880F991F880F991F880F991F820F92
:101E8000931FF601E81BF90BD501EC93B80180E034
:101E900090E00E948C1220E030E040E251E40E9489
:101EA000E4110E945D12F7016083A9CFE894D7F88E
:101EB000B60180E090E00E948C1220E030E040E229
:101EC00051E40E94E41190580E945612D4016C9380
:101ED0009601ADECBCEC0E945511969587959695B0
:101EE0008795969587959C01220F331F880F991F20
:101EF000880F991F880F991F820F931FB601681BC7
:101F0000790B80E090E00E948C1290580E945D1244
:101F1000F5016083BBCF90916C0280916B029817A2
:101F200091F0E0916B0281E08E0F80936B02F0E004
:101F3000E859FD4F868190916B02903110F010921C
:101F40006B0290E008958EEF9FEF08959091C0008E
:101F500095FFFCCF8093C600082E000C990B0895C6
:101F600086E1E8E6F2E0DF011D928A95E9F7BFEF2E
:101F700022E587E0B15020408040E1F700C000003A
:101F800082E28093C4001092C50082E08093C0007A
:101F900086E08093C20088E98093C10080E284B922
:101FA00015B8EEE7F2E08EE091E09383828380E063
:101FB00091E091838083089508958F3F11F08F5FA2
:101FC00008958FEF08958F3F2FEF920711F001963C
:101FD00008958FEF9FEF0895FC01862F90819F3F1A
:101FE00009F09F5F90830895FC01862F2081318145
:101FF0002F3F9FEF390711F02F5F3F4F3183208331
:1020000008958091680287FF0895789408958FB7A6
:10201000E8E6F2E090818078892B8083F894089537
:1020200086EC91E09F938F930E948E130F900F90F8
:10203000089590916C0280916B02981738F480910A
:102040006C0290916B02805F891B089580916C02F5
:1020500090916B02891B0895CF93C82F9FB7209151
:1020600068029078922B90936802F8940E9419105D
:10207000C817A0F490916B02EC2FE90FE03160F4E7
:10208000F0E0E859FD4F868190E02091680227FF3B
:1020900001C07894CF910895E051F2CF8FEF9FEF78
:1020A000F4CF8FB7909168028078892B8093680273
:1020B000F8948091C00087FF08C08091C60080938B
:1020C0006D028091C00087FDF8CF10926B021092D4
:1020D0006C0210926D028091680287FF08957894D7
:1020E00008952FB7309168022078232B209368023F
:1020F000F89420916A02282331E009F430E09091AD
:102100006A02982B90936A028091680287FF01C04F
:102110007894832F0895982F8FB720916802807844
:10212000822B80936802F89420916A02292381E02F
:1021300009F480E020916A029095922390936A02BC
:102140009091680297FF08957894089590916A029B
:10215000982381E009F480E00895811102C02D9850
:1021600008952D9A089595B180E2892785B908953B
:102170001F920F920FB60F9211242F933F934F93FC
:102180005F936F937F938F939F93AF93BF93EF93DF
:10219000FF938091C600823521F49091CA0190345A
:1021A000A9F08093CA010E943808FF91EF91BF9176
:1021B000AF919F918F917F916F915F914F913F91DF
:1021C0002F910F900FBE0F901F90189598E088E107
:1021D0000FB6F894A895809360000FBE90936000AE
:1021E000A895FFCF0E94B00F0E945D000E941010C2
:1021F00078940E94DC0F0E946706FBCFDB018F936F
:102200009F930E946411BF91AF91A29F800D911D79
:10221000A39F900DB29F900D11240895A1E21A2E54
:10222000AA1BBB1BFD010DC0AA1FBB1FEE1FFF1F7A
:10223000A217B307E407F50720F0A21BB30BE40BCA
:10224000F50B661F771F881F991F1A9469F7609511
:102250007095809590959B01AC01BD01CF010895CB
:10226000052E97FB1EF400940E94471157FD07D0DE
:102270000E940E1107FC03D04EF40C9447115095A8
:102280004095309521953F4F4F4F5F4F0895909562
:102290008095709561957F4F8F4F9F4F0895EE0FFA
:1022A000FF1F0590F491E02D0994A29FB001B39F08
:1022B000C001A39F700D811D1124911DB29F700D4F
:1022C000811D1124911D08950E945511A59F900D07
:1022D000B49F900DA49F800D911D11240895B7FF08
:1022E0000C9464110E946411821B930B0895505842
:1022F000BB27AA270E948F110C94E0120E94D212D1
:1023000038F00E94D91220F039F49F3F19F426F4D6
:102310000C94CF120EF4E095E7FB0C94C912E92F50
:102320000E94F11258F3BA176207730784079507E2
:1023300020F079F4A6F50C9413130EF4E0950B2E0F
:10234000BA2FA02D0B01B90190010C01CA01A00107
:102350001124FF27591B99F0593F50F4503E68F162
:102360001A16F040A22F232F342F4427585FF3CFA3
:10237000469537952795A795F0405395C9F77EF474
:102380001F16BA0B620B730B840BBAF09150A1F0BD
:10239000FF0FBB1F661F771F881FC2F70EC0BA0F43
:1023A000621F731F841F48F4879577956795B795CB
:1023B000F7959E3F08F0B0CF9395880F08F09927C6
:1023C000EE0F9795879508950E94F8110C94E012EE
:1023D0000E94D91258F00E94D21240F029F45F3FB7
:1023E00029F00C94C91251110C9414130C94CF12AF
:1023F0000E94F11268F39923B1F3552391F3951BD1
:10240000550BBB27AA2762177307840738F09F5F15
:102410005F4F220F331F441FAA1FA9F335D00E2E82
:102420003AF0E0E832D091505040E695001CCAF7EF
:102430002BD0FE2F29D0660F771F881FBB1F2617B2
:1024400037074807AB07B0E809F0BB0B802DBF0189
:10245000FF2793585F4F3AF09E3F510578F00C9458
:10246000C9120C9414135F3FE4F3983ED4F386959D
:1024700077956795B795F7959F5FC9F7880F911D79
:102480009695879597F90895E1E0660F771F881F65
:10249000BB1F621773078407BA0720F0621B730B18
:1024A000840BBA0BEE1F88F7E09508950E945D1229
:1024B0006894B1110C94141308950E94F91288F0D5
:1024C0009F5798F0B92F9927B751B0F0E1F0660FF8
:1024D000771F881F991F1AF0BA95C9F714C0B13039
:1024E00091F00E941313B1E008950C941313672F19
:1024F000782F8827B85F39F0B93FCCF38695779568
:102500006795B395D9F73EF4909580957095619550
:102510007F4F8F4F9F4F0895E89409C097FB3EF47B
:1025200090958095709561957F4F8F4F9F4F992320
:10253000A9F0F92F96E9BB279395F695879577959E
:102540006795B795F111F8CFFAF4BB0F11F460FF5E
:102550001BC06F5F7F4F8F4F9F4F16C0882311F0B6
:1025600096E911C0772321F09EE8872F762F05C0CA
:10257000662371F096E8862F70E060E02AF09A9565
:10258000660F771F881FDAF7880F9695879597F95A
:10259000089597F99F6780E870E060E008959FEFE5
:1025A00080EC089500240A941616170618060906EA
:1025B000089500240A9412161306140605060895B9
:1025C000092E0394000C11F4882352F0BB0F40F441
:1025D000BF2B11F460FF04C06F5F7F4F8F4F9F4F81
:1025E000089557FD9058440F551F59F05F3F71F003
:1025F0004795880F97FB991F61F09F3F79F087956A
:102600000895121613061406551FF2CF4695F1DFF2
:1026100008C0161617061806991FF1CF8695710582
:10262000610508940895E894BB2766277727CB01B6
:1026300097F908950E942D130C94E0120E94D21273
:1026400038F00E94D91220F0952311F00C94C91291
:102650000C94CF1211240C9414130E94F11270F3F5
:10266000959FC1F3950F50E0551F629FF001729F37
:10267000BB27F00DB11D639FAA27F00DB11DAA1F46
:10268000649F6627B00DA11D661F829F2227B00D93
:10269000A11D621F739FB00DA11D621F839FA00D1E
:1026A000611D221F749F3327A00D611D231F849F6E
:1026B000600D211D822F762F6A2F11249F575040C5
:1026C0009AF0F1F088234AF0EE0FFF1FBB1F661F40
:1026D000771F881F91505040A9F79E3F510580F009
:1026E0000C94C9120C9414135F3FE4F3983ED4F396
:1026F000869577956795B795F795E7959F5FC1F7AD
:10270000FE2B880F911D9695879597F90895DC010A
:1027100001C06D9341505040E0F70895A0E0B0E053
:10272000E4E9F3E10C946216AE014B5F5F4FFA01EE
:1027300061917191AF0180918002909181020E941C
:10274000D413E2E00C947E16AEE0B0E0EAEAF3E1E6
:102750000C9460160D891E898F89988D26E02C8334
:102760001A83098397FF02C080E090E801979E8357
:102770008D83AE01455E5F4F698D7A8DCE010196E6
:102780000E94D4134D815E8157FD0AC02F81388588
:10279000421753070CF49A01F801E20FF31F10825D
:1027A0002E96E4E00C947C16ACE0B0E0EAEDF3E1A8
:1027B0000C9452167C016B018A01FC01178216826F
:1027C000838181FFBDC1CE0101964C01F701938148
:1027D000F60193FD859193FF81916F01882309F4A0
:1027E000ABC1853239F493FD859193FF81916F01DF
:1027F000853229F4B70190E00E94BC15E7CF512C37
:10280000312C20E02032A0F48B3269F030F4803299
:1028100059F0833269F420612CC08D3239F0803355
:1028200039F4216026C02260246023C0286021C0C2
:1028300027FD27C030ED380F3A3078F426FF06C068
:10284000FAE05F9E300D1124532E13C08AE0389EAB
:10285000300D1124332E20620CC08E3221F426FD5F
:102860006BC1206406C08C3611F4206802C0883623
:1028700041F4F60193FD859193FF81916F018111E0
:10288000C1CF982F9F7D9554933028F40C5F1F4F34
:10289000FFE3F9830DC0833631F0833771F0833560
:1028A00009F05BC022C0F801808189830E5F1F4F51
:1028B00044244394512C540115C03801F2E06F0EAA
:1028C000711CF801A080B18026FF03C0652D70E067
:1028D00002C06FEF7FEFC5012C870E94B1152C015C
:1028E00083012C852F77222E17C03801F2E06F0E5E
:1028F000711CF801A080B18026FF03C0652D70E037
:1029000002C06FEF7FEFC5012C870E94A6152C0136
:102910002C852068222E830123FC1BC0832D90E090
:1029200048165906B0F4B70180E290E00E94BC1549
:102930003A94F4CFF50127FC859127FE81915F0140
:10294000B70190E00E94BC1531103A94F1E04F1AA3
:1029500051084114510471F7E5C0843611F08936ED
:1029600039F5F80127FF07C0608171818281938169
:102970000C5F1F4F08C060817181072E000C880B0F
:10298000990B0E5F1F4F2F76722E97FF09C09095FF
:102990008095709561957F4F8F4F9F4F2068722E65
:1029A0002AE030E0A4010E94F415A82EA81844C023
:1029B000853729F42F7EB22E2AE030E025C0F22F91
:1029C000F97FBF2E8F36C1F018F4883579F0B4C086
:1029D000803719F0883721F0AFC02F2F2061B22E39
:1029E000B4FE0DC08B2D8460B82E09C024FF0AC030
:1029F0009F2F9660B92E06C028E030E005C020E188
:102A000030E002C020E132E0F801B7FE07C060818B
:102A10007181828193810C5F1F4F06C0608171813B
:102A200080E090E00E5F1F4FA4010E94F415A82ED5
:102A3000A818FB2DFF777F2E76FE0BC0372D3E7F2B
:102A4000A51450F474FE0AC072FC08C0372D3E7EF7
:102A500005C0BA2C372D03C0BA2C01C0B52C34FFE9
:102A60000DC0FE01EA0DF11D8081803311F4397E25
:102A700009C032FF06C0B394B39404C0832F867894
:102A800009F0B39433FD13C030FF06C05A2CB314C1
:102A900018F4530C5B18B32CB31468F4B70180E23C
:102AA00090E03C870E94BC15B3943C85F5CFB314ED
:102AB00010F43B1801C0312C34FF12C0B70180E381
:102AC00090E03C870E94BC153C8532FF17C031FD69
:102AD00003C088E790E002C088E590E0B7010CC031
:102AE000832F867859F031FF02C08BE201C080E26B
:102AF00037FD8DE2B70190E00E94BC15A51438F4B3
:102B0000B70180E390E00E94BC155A94F7CFAA94D5
:102B1000F401EA0DF11D8081B70190E00E94BC151F
:102B2000A110F5CF332009F451CEB70180E290E037
:102B30000E94BC153A94F6CFF7018681978102C0B6
:102B40008FEF9FEF2C96E2E10C946E16FC0105903E
:102B5000615070400110D8F7809590958E0F9F1F9F
:102B60000895FC016150704001900110D8F78095E4
:102B700090958E0F9F1F08950F931F93CF93DF9310
:102B8000FB01238121FD03C08FEF9FEF28C022FFAF
:102B900016C046815781248135814217530744F47A
:102BA000A081B1819D012F5F3F4F318320838C93A2
:102BB000268137812F5F3F4F3783268310C0EB017B
:102BC000092F182F0084F185E02D0995892BE1F656
:102BD0008E819F8101969F838E83812F902FDF911D
:102BE000CF911F910F910895FA01AA27283051F132
:102BF000203181F1E8946F936E7F6E5F7F4F8F4F2E
:102C00009F4FAF4FB1E03ED0B4E03CD0670F781F8C
:102C1000891F9A1FA11D680F791F8A1F911DA11D71
:102C20006A0F711D811D911DA11D20D009F46894AA
:102C30003F912AE0269F11243019305D3193DEF652
:102C4000CF010895462F4770405D4193B3E00FD008
:102C5000C9F7F6CF462F4F70405D4A3318F0495DF3
:102C600031FD4052419302D0A9F7EACFB4E0A695D6
:102C70009795879577956795BA95C9F700976105F8
:102C8000710508959B01AC010A2E0694579547954E
:102C900037952795BA95C9F7620F731F841F951F43
:102CA000A01D08952F923F924F925F926F927F9254
:102CB0008F929F92AF92BF92CF92DF92EF92FF924C
:102CC0000F931F93CF93DF93CDB7DEB7CA1BDB0BF8
:102CD0000FB6F894DEBF0FBECDBF09942A8839889D
:102CE00048885F846E847D848C849B84AA84B984A4
:102CF000C884DF80EE80FD800C811B81AA81B981B0
:102D0000CE0FD11D0FB6F894DEBF0FBECDBFED01C3
:062D10000895F894FFCFC6
:102D1600000000010000000000008B0F0000000012
:102D2600000200000000A60F0000000025732564C5
:102D360025303364253033643D0025732564253002
:102D460033643D002573303D00256400256425303D
:102D560033640025642530336425303364002563ED
:102D660025733A00256325733A25733A00256325B2
:102D7600642E25643A25643A25733D002573253073
:102D860034782563004572726F723A205265636526
:102D960069766564204672616D65207768696C6541
:102DA600206F6C64206672616D652070656E646963
:102DB6006E67004572726F723A2052656365697676
:102DC6006564204672616D6520746F6F206C6F6E4E
:0A2DD6006700256C64000A0D000080
:00000001FF
