:100000000C94BF000C94DC000C94DC000C94DC001D
:100010000C94DC000C94DC000C94DC000C94DC00F0
:100020000C94DC000C94DC000C94DC000C94DC00E0
:100030000C94DC000C94DC000C9484060C94DC0022
:100040000C94DC000C94DC000C9429060C94DC006D
:100050000C94DC000C94DC000C94DC000C94DC00B0
:100060000C94DC000C94DC0032303A31393A3235F1
:10007000004A756E2032382032303138000A0D5077
:10008000726F6772616D6D203F3F2000B0001901F3
:100090009400EA007465737400636F6D6D616E6443
:1000A0006F20666F722074657374007465737400DA
:1000B000696E666F004170706C69636174696F6E20
:1000C00020696E666F7300696E666F004C696E65BD
:1000D0002D4D6F64653A204354524C2D582C2043CB
:1000E00054524C2D592C204354524C2D432C205209
:1000F000657475726E20200A0D002001CE03020186
:10010000B70273696E666F0053797374656D696EBB
:10011000666F726D6174696F6E0073696E666F00F1
:1001200068656C70004C697374206F6620616C6C3C
:1001300020636F6D6D616E64730068656C70002084
:100140002D3E2053796E746178206572726F720A49
:100150000D55736167653A20004572726F723A20DF
:10016000556E6B6E6F776E20636F6D6D616E640A96
:100170000D004572726F7220000A0D3E00001124BE
:100180001FBECFEFD8E0DEBFCDBF11E0A0E0B1E0F1
:10019000EAE8F7E102C005900D92A63CB107D9F755
:1001A00022E0A6ECB1E001C01D92AB31B207E1F74D
:1001B0000E94F1060C94C30B0C9400001092CE0127
:1001C0000895089508950895089508950895089547
:1001D00008950895DF92EF92FF920F931F93CF93AC
:1001E000DF93D82E8B01C0E0D0E08CE1E82E81E0D7
:1001F000F82ECD15A8F4F801808191810E5F1F4F74
:100200009F938F93DF93CF93FF92EF920E94DC082E
:1002100021960F900F900F900F900F900F90E9CFB5
:1002200080E0DF91CF911F910F91FF90EF90DF90D1
:10023000089585E291E09F938F930E94DC0880915E
:10024000FD010E949C020E9408020F900F9080E026
:1002500008951092D1010895089582E008958111C2
:100260000EC08CEC90E00E94110286E391E09F9317
:100270008F930E94DC080F900F9084E108958130E5
:1002800051F488E491E09F938F930E94DC080F90D3
:100290000F9088E208958FEF0895882319F0813038
:1002A00079F02DC08CE691E09F938F930E94DC083B
:1002B0008091CE0160E00E9462020F900F901DC0FD
:1002C000633621F41092C7011092C6018091C601D5
:1002D0009091C7019C012F5F3F4F3093C70120933E
:1002E000C6019F938F9382E791E09F938F930E9423
:1002F000DC080F900F900F900F9082E008958FEF21
:100300000895209113023091140228173907C1F47F
:100310009091010280910002981791F0E091000203
:1003200081E08E0F80930002F0E0E350FE4F868163
:1003300090910002903110F01092000290E0089528
:100340008EEF9FEF089520911502309116026217EB
:10035000730741F49091C00095FFFCCF8093C600D5
:1003600090E008958EEF9FEF089586E1EDEFF1E0C4
:10037000DF011D928A95E9F7BFEF22E587E0B150D2
:1003800020408040E1F700C0000087EC87BD82E09C
:1003900084BD85BD80936E0085BB92E29093C400BE
:1003A0001092C5008093C00086E08093C20088E967
:1003B0008093C10080E284B915B88EE091E09093FB
:1003C00016028093150280E091E0909314028093CE
:1003D000130208958F3F11F08F5F08958FEF0895F6
:1003E0008F3F2FEF920711F0019608958FEF9FEF47
:1003F00008958091FD0187FF01C078940895EDEF85
:10040000F1E090818FB78078892B8083F8940895EC
:1004100083EC91E09F938F930E94DC080F900F90E4
:1004200008950F931F93CF93DF931F92CDB7DEB73D
:100430008C010F5F1F4F41E050E0BC01CE010196DF
:100440000E9451088981882349F0609115027091BA
:10045000160290E00E94AA08C801EACF0F90DF912F
:10046000CF911F910F9108950E9411020C940802E0
:10047000CF93DF931F92CDB7DEB71982863629F06E
:10048000833761F08536C1F411C077FD15C041E0B6
:1004900050E0CE0101960E9451080BC0611589E021
:1004A000780750F4FB018081898303C06115744093
:1004B00018F4898190E002C08FEF9FEF0F90DF91D9
:1004C000CF910895DF92EF92FF920F931F93CF93F6
:1004D000DF93E82ED62EF12CC1E3D0E0062F10E0FA
:1004E00060911502709116022E2D332727FD30954D
:1004F000209530952227330F221F3327CE01821BF0
:10050000930B0E94AA0883E0F81209C0DD2039F09D
:100510006091150270911602C8010E94AA08F39416
:10052000EE0C88E0F812DCCFDF91CF911F910F9194
:10053000FF90EF90DF900895CF93C82F1F928F9375
:1005400022E831E03F932F930E94DC0860E28C2F79
:100550000E9462020F900F900F900F906091150211
:100560007091160289E290E0CF910C94AA088BE872
:1005700091E09F938F930E94DC088091FD010E947F
:100580009C020E9408028CE991E09F938F930E9445
:10059000DC088091FE010E949C020E9408020F90DC
:1005A0000F900F900F9080E008951F93CF93DF93EB
:1005B000182FC92F9F938F932DEA31E03F932F93EC
:1005C0000E94DC0860E28C2F0E946202C5E1D2E04A
:1005D0006881798180E290E00E94AA0860E2812F20
:1005E0000E9462020F900F900F900F9068817981A6
:1005F00089E290E0DF91CF911F910C94AA08CF93EC
:10060000DF93EB01FC012081203331F42181283775
:1006100019F440E150E002C04AE050E060E070E0D0
:100620000E941507C617D7071CF48FEF9FEF01C074
:10063000CB01DF91CF91089590910102809100024A
:10064000981728F0809101029091000205C08091D6
:10065000010290910002805F891B0895CF93DF9380
:10066000C82F0E94FF010E941C03C81760F4E0918C
:100670000002EC0FE03108F0E051F0E0E350FE4FF3
:10068000C681D0E002C0CFEFDFEF0E94F901CE01BA
:10069000DF91CF9108950E94FF018091C00087FFF4
:1006A00005C08091C60080930302F7CF109200022C
:1006B00010920102109202020C94F901CF93DF9381
:1006C000C82F0E94FF01D091FF019091FF019C2B48
:1006D0009093FF010E94F901CD2381E009F480E0AD
:1006E000DF91CF910895CF93DF93C82F0E94FF0130
:1006F000D091FF018091FF019C2F909598239093BA
:10070000FF010E94F901CD2381E009F480E0DF912F
:10071000CF9108959091FF01982381E009F480E042
:100720000895882311F02D9A08952D98089585B184
:1007300090E2892785B908951F93CF93DF9300D066
:1007400000D0CDB7DEB71A8219821C821B8282309C
:1007500038F494E0899FB001112466507F4F0CC09B
:100760001EEF180F0E942D01181760F484E0189FE7
:10077000B001112464577F4F44E050E0CE01019650
:100780000E94510869817A818B819C810F900F9022
:100790000F900F90DF91CF911F9108958F929F92AC
:1007A000AF92BF92CF92DF92EF92FF920F931F937F
:1007B000CF93DF93C0E080E0D1E0D80F0E949C038C
:1007C000892B41F0CB010E946308C81708F4C82F99
:1007D0008D2FF2CF80E0D0E0219699249394980E4B
:1007E0000E949C036B017C01EF2819F1CB010E9450
:1007F0001102C6010E9463085C01882E00E010E02F
:10080000882D800F90E00F5F1F4FC817D9074CF05D
:10081000609115027091160280E290E00E94AA0891
:10082000EFCFC50101968C0D9D1D0E943402892DCC
:10083000D4CF80E0DF91CF911F910F91FF90EF9087
:10084000DF90CF90BF90AF909F908F900895EF92E0
:10085000FF920F931F93CF93DF931F92CDB7DEB715
:10086000FC01608171818B010F5F1F4F41E050E0FF
:10087000CE0101960E9451088981882311F0B801A8
:10088000F2CF7801FFEFEF1AFF0A41E050E0B80124
:10089000CE0101960E9451088981882311F08701B9
:1008A000F0CFC7010E9411020F90DF91CF911F91ED
:1008B0000F91FF90EF900895CF92DF92EF92FF9209
:1008C0000F931F93CF93DF93CDB7DEB72C970FB65F
:1008D000F894DEBF0FBECDBF0E9408029E012F5FBD
:1008E0003F4FE5EDF1E0D12C122F032F80818823BB
:1008F000A9F0DF0181918032E1F3882379F0F901D9
:10090000A193B1939F01D394FD018D91803209F49D
:1009100084C08111F9CF84E0D812E8CF8D2D8430C6
:1009200050F4E12FF02FE80FF11DE80FF11D1182B7
:1009300010828F5FF4CFDD2009F458C0E981FA817D
:100940008081882309F452C080E0CC24C394C80E6F
:100950000E949C0369877A878B879C87EB84FC8441
:10096000E114F10429F489E591E00E9411023EC0EE
:1009700069857A8585ED91E00E945A08892BA1F559
:10098000E2E0DE1208C060E271E08B819C810E948F
:100990005A08892B11F1612F702F8D2DF7010995C0
:1009A000182F8823F1F082E791E00E941102212F95
:1009B000332727FD30953F931F9326EB31E03F937C
:1009C0002F930E94DC080F900F900F900F9017FF4D
:1009D00008C08FE391E00E941102CE0109960E94A7
:1009E00027040E94080202C08C2DAFCF89E791E056
:1009F0000E9411021092D4011092D5012C960FB6CC
:100A0000F894DEBF0FBECDBFDF91CF911F910F9144
:100A1000FF90EF90DF90CF9008951082FD017BCF83
:100A20008091D401882389F089EB91E09F938F9383
:100A30000E94DC08E091D401E150E093D401F0E0A1
:100A4000EE52FE4F13820F900F9008951F93CF9395
:100A5000DF93162FC82FD0E0112349F060911502C3
:100A600070911602CE010E94AA081150F5CFDF91B5
:100A7000CF911F9108951F93CF93DF931F92CDB70E
:100A8000DEB78091D20180FFABC060E069830E9435
:100A90001C036981882301F1809113029091140253
:100AA0000E946C08682F8091CC018A3081F06D30F3
:100AB00071F48091D2018C7F8093D2018DEB91E013
:100AC0009F938F930E94DC080F900F90BBC06093A0
:100AD000CC016A30D9F6EDCF683139F48091D2017A
:100AE0008D7F8093D20111E019C0693139F4809172
:100AF000D2018D7F8093D2011FEF10C0633069F463
:100B00008091D20182FF04C08091D201897F03C00D
:100B10008091D20184608093D20110E08091D20153
:100B200081FF18C08091D3010E944D01682F80E29F
:100B30000E9426058DE090E00E94F0088091D2018D
:100B400082FF80C08AE090E00F90DF91CF911F91EB
:100B50000C94F00882EC91E09F938F930E94DC0844
:100B60000F900F90112349F08091D301113011F4AF
:100B70008F5F01C081508093D3018091D3010E9487
:100B80002F0187FD0BC089830E94080289811816F6
:100B900054F4682F8DE20E94260505C09091D30180
:100BA0009111E0CFF0CF0E9408028091D2018260C3
:100BB0008093D20147C080911302909114020E9449
:100BC0006C089091CC019A3081F48093CC0198EE1E
:100BD000980F923070F48091D20181608093D2019D
:100BE0000E941C038111E7CF2DC08D3071F78AE080
:100BF000EECF8A3019F40E945C04F2CF8F3781F374
:100C0000883019F40E941005EBCF90EE980F9F35B5
:100C100038F7A091D401A73218F7E1E0EA0FE0938A
:100C2000D401B0E0AE52BE4F13968C93F0E0EE527A
:100C3000FE4F1382609115027091160290E00E949F
:100C4000AA08CECF0F90DF91CF911F9108950C94F9
:100C50003B051F920F920FB60F9211242F938F9383
:100C60009F93EF93FF938091C600823589F4909112
:100C7000CB01903469F428E088E190E00FB6F89455
:100C8000A895809360000FBE20936000A895FFCFC9
:100C90008093CB01E091010291E09E0F90930102BD
:100CA000F0E0E350FE4F868380910102803110F026
:100CB000109201029091010280910002981314C0D9
:100CC00080910102811102C08FE003C08091010276
:100CD000815080930102809102028F3F11F08F5F5B
:100CE00001C08FEF80930202E0910102F0E0E35037
:100CF000FE4F1682FF91EF919F918F912F910F9050
:100D00000FBE0F901F9018951F920F920FB60F9263
:100D100011242F933F934F935F936F937F938F9300
:100D20009F93AF93BF93EF93FF938091CA018F5F1F
:100D3000853018F48093CA0143C01092CA01809193
:100D4000C9018F5F8093C9018091C801882351F048
:100D50008091FE018F3F11F08F5F01C08FEF809374
:100D6000FE012EC081E08093C80178948091C90172
:100D700080FF03C00E94E20021C081FF03C00E94E7
:100D8000E3001CC082FF03C00E94E40017C083FF81
:100D900003C00E94E50012C084FF03C00E94E60069
:100DA0000DC085FF03C00E94E70008C086FF03C096
:100DB0000E94E80003C087FD0E94E9001092C8016C
:100DC000FF91EF91BF91AF919F918F917F916F9123
:100DD0005F914F913F912F910F900FBE0F901F90F9
:100DE00018950E94B5010E94DE000E9429018DE73E
:100DF00090E00E94110281E790E00E94110280E2DF
:100E000090E00E94F00888E690E00E9434020E9480
:100E100008028EE390E00E94F00878940E94270672
:100E20000E94E1000E942C01F9CF2F923F925F9225
:100E30006F927F928F929F92AF92BF92CF92DF92EA
:100E4000EF92FF920F931F93CF93DF938B01EA01F1
:100E50006115710521F0DB018C9311969C9320970D
:100E600039F09E01225031092332310508F0FBC0D0
:100E70007C016701BFEFCB1ADB0A5601F7016080E6
:100E8000862D90E00E944908892B11F07601F1CF60
:100E9000FDE26F120AC0570182E0A80EB11CD70113
:100EA00011966C90772473940BC0BBE26B1207C051
:100EB0005701E2E0AE0EB11CD70111966C90712C77
:100EC000CE018F7E892B89F4B0E36B1222C0F5012D
:100ED00080818F7D883541F56180F2E0AF0EB11CD5
:100EE000872D8260782EC0E1D0E0C830D105F1F0C6
:100EF0004CF4C230D10511F5C12CD12CE12CB0E459
:100F0000FB2E2FC0CA30D10531F0C031D10521F1FF
:100F100015C0209751F7CAE0D0E0ACECCA2EDC2C0B
:100F2000EC2CACE0FA2E1DC02097F9F6C8E0D0E01A
:100F3000C12CD12CE12CF0E1FF2E13C060E070E059
:100F400080E090E89E01442737FD4095542F0E9491
:100F5000500B69017A0105C0C12CD12CE12CE8E0CD
:100F6000FE2EF50160E020E030E0A9014E01AA2448
:100F700097FCA094BA2C1F0170ED572E560CA9E0D7
:100F8000A51570F48FEB860D8A3118F499EC592E63
:100F900006C08FE9860D8A3130F589EA582E560C45
:100FA000852D90E08C179D07F4F467FD18C0C216DC
:100FB000D306E406F50680F0C501B4010E94400B9B
:100FC0009B01AC01250D311D411D511D2130310505
:100FD0004105B0E85B0710F06FEF01C061E03196AA
:100FE000D1016C90C8CF872D81700115110571F06A
:100FF000662329F03197D801ED93FC9307C071FE69
:1010000019C03297D801ED93FC9314C067FF12C04A
:10101000882329F020E030E040E050E804C02FEFC2
:101020003FEF4FEF5FE782E290E090931A028093E8
:10103000190216C0882341F05095409530952195AE
:101040003F4F4F4F5F4F0CC057FF0AC082E290E006
:1010500090931A02809319022FEF3FEF4FEF5FE753
:10106000B901CA0104C060E070E080E090E0DF9167
:10107000CF911F910F91FF90EF90DF90CF90BF9095
:10108000AF909F908F907F906F905F903F902F9048
:10109000089591117EC2803219F089508550D0F7A1
:1010A0000895FB01DC0102C005900D9241505040B3
:1010B000D8F70895FB01DC018D910590801901108E
:1010C000D9F3990B0895FC0105900020E9F780956C
:1010D00090958E0F9F1F0895CF93DF93EC012B8186
:1010E00020FF33C026FF0AC02F7B2B838E819F8178
:1010F00001969F838E838A8190E029C022FF0FC0D2
:10110000E881F9818081992787FD9095009719F4EE
:1011100020622B831AC03196F983E8830EC0EA85DA
:10112000FB85099597FF09C02B81019611F480E199
:1011300001C080E2822B8B8308C02E813F812F5F0C
:101140003F4F3F832E83992702C08FEF9FEFDF91A0
:10115000CF9108950F931F93CF93DF93182F092FEB
:10116000EB018B8181FD03C08FEF9FEF20C082FFD9
:1011700010C04E815F812C813D81421753077CF462
:10118000E881F9819F012F5F3F4F398328831083C6
:1011900006C0E885F985812F0995892B29F72E81CD
:1011A0003F812F5F3F4F3F832E83812F902FDF9111
:1011B000CF911F910F910895A0E0B0E0E2EEF8E02A
:1011C0000C948D0BFE01359661917191AF01809168
:1011D0001502909116020E94F708E2E00C94A90B08
:1011E00060911502709116020E94AA080895ACE061
:1011F000B0E0EDEFF8E00C947D0B7C016B018A010F
:10120000FC0117821682838181FFBDC1CE01019648
:101210004C01F7019381F60193FD859193FF819134
:101220006F01882309F4ABC1853239F493FD8591B0
:1012300093FF81916F01853229F4B70190E00E94FC
:10124000AA08E7CF512C312C20E02032A0F48B32B9
:1012500069F030F4803259F0833269F420612CC097
:101260008D3239F0803339F4216026C02260246049
:1012700023C0286021C027FD27C030ED380F3A3049
:1012800078F426FF06C0FAE05F9E300D1124532E3D
:1012900013C08AE0389E300D1124332E20620CC01A
:1012A0008E3221F426FD6BC1206406C08C3611F409
:1012B000206802C0883641F4F60193FD859193FFC2
:1012C00081916F018111C1CF982F9F7D95549330EB
:1012D00028F40C5F1F4FFFE3F9830DC0833631F014
:1012E000833771F0833509F05BC022C0F80180813B
:1012F00089830E5F1F4F44244394512C540115C021
:101300003801F2E06F0E711CF801A080B18026FF59
:1013100003C0652D70E002C06FEF7FEFC5012C8721
:101320000E94D70A2C0183012C852F77222E17C00B
:101330003801F2E06F0E711CF801A080B18026FF29
:1013400003C0652D70E002C06FEF7FEFC5012C87F1
:101350000E94CC0A2C012C852068222E830123FCBC
:101360001BC0832D90E048165906B0F4B70180E207
:1013700090E00E94AA083A94F4CFF50127FC8591E9
:1013800027FE81915F01B70190E00E94AA08311009
:101390003A94F1E04F1A51084114510471F7E5C035
:1013A000843611F0893639F5F80127FF07C06081CE
:1013B0007181828193810C5F1F4F08C060817181B0
:1013C000882777FD8095982F0E5F1F4F2F76B22EBE
:1013D00097FF09C090958095709561957F4F8F4FCD
:1013E0009F4F2068B22E2AE030E0A4010E94E20A5A
:1013F000A82EA81844C0853729F42F7EB22E2AE0E3
:1014000030E025C0F22FF97FBF2E8F36C1F018F4DF
:10141000883579F0B4C0803719F0883721F0AFC033
:101420002F2F2061B22EB4FE0DC08B2D8460B82EFC
:1014300009C024FF0AC09F2F9660B92E06C028E07D
:1014400030E005C020E130E002C020E132E0F801E8
:10145000B7FE07C060817181828193810C5F1F4F4D
:1014600006C06081718180E090E00E5F1F4FA40193
:101470000E94E20AA82EA818FB2DFF77BF2EB6FE09
:101480000BC02B2D2E7FA51450F4B4FE0AC0B2FC65
:1014900008C02B2D2E7E05C07A2C2B2D03C07A2C54
:1014A00001C0752C24FF0DC0FE01EA0DF11D8081E5
:1014B000803311F4297E09C022FF06C0739473940F
:1014C00004C0822F867809F0739423FD13C020FF97
:1014D00006C05A2C731418F4530C5718732C731439
:1014E00068F4B70180E290E02C870E94AA08739408
:1014F0002C85F5CF731410F4371801C0312C24FF5C
:1015000012C0B70180E390E02C870E94AA082C85C6
:1015100022FF17C021FF03C088E590E002C088E7E2
:1015200090E0B7010CC0822F867859F021FD02C0EF
:1015300080E201C08BE227FD8DE2B70190E00E94BE
:10154000AA08A51438F4B70180E390E00E94AA0825
:101550005A94F7CFAA94F401EA0DF11D8081B701E6
:1015600090E00E94AA08A110F5CF332009F451CED3
:10157000B70180E290E00E94AA083A94F6CFF70102
:101580008681978102C08FEF9FEF2C96E2E10C9449
:10159000990B992788270895FC01059061507040A8
:1015A0000110D8F7809590958E0F9F1F0895FC012C
:1015B0006150704001900110D8F7809590958E0F82
:1015C0009F1F0895FA01AA27283051F1203181F197
:1015D000E8946F936E7F6E5F7F4F8F4F9F4FAF4F3B
:1015E000B1E03ED0B4E03CD0670F781F891F9A1F4E
:1015F000A11D680F791F8A1F911DA11D6A0F711D02
:10160000811D911DA11D20D009F468943F912AE00D
:10161000269F11243019305D3193DEF6CF010895F5
:10162000462F4770405D4193B3E00FD0C9F7F6CF26
:10163000462F4F70405D4A3318F0495D31FD4052EE
:10164000419302D0A9F7EACFB4E0A6959795879584
:1016500077956795BA95C9F7009761057105089563
:101660009B01AC010A2E069457954795379527950F
:10167000BA95C9F7620F731F841F951FA01D0895A7
:10168000DB018F939F930E94720BBF91AF91A29F3A
:10169000800D911DA39F900DB29F900D1124089570
:1016A000A1E21A2EAA1BBB1BFD010DC0AA1FBB1F66
:1016B000EE1FFF1FA217B307E407F50720F0A21BD8
:1016C000B30BE40BF50B661F771F881F991F1A9445
:1016D00069F760957095809590959B01AC01BD016F
:1016E000CF0108950E94B40BA59F900DB49F900D5B
:1016F000A49F800D911D112408952F923F924F9227
:101700005F926F927F928F929F92AF92BF92CF9291
:10171000DF92EF92FF920F931F93CF93DF93CDB79A
:10172000DEB7CA1BDB0B0FB6F894DEBF0FBECDBF12
:1017300009942A88398848885F846E847D848C84E3
:101740009B84AA84B984C884DF80EE80FD800C81EC
:101750001B81AA81B981CE0FD11D0FB6F894DEBFCF
:101760000FBECDBFED010895A29FB001B39FC00190
:10177000A39F700D811D1124911DB29F700D811DBD
:0A1780001124911D0895F894FFCF85
:10178A0000000001000000000000810100000000CC
:10179A00000200000000A3010000000025753A20A5
:1017AA0025730A0D006170702E666C6167735F7530
:1017BA003820203A20004C30207C206170702E6640
:1017CA006C6167735F7538004C31207C20636F75DC
:1017DA006E746572202028707265737320276327E0
:1017EA0020666F7220726573657429002020207C40
:1017FA0020002020207C20203078253034782020BA
:10180A0020003078253032782028007379732E66CC
:10181A006C6167735F753820203A20007379732EE4
:10182A007461736B4572725F75383A20003078259F
:10183A00303478202800256400082008000A0A0DA0
:06184A003E000A0A0D0039
:00000001FF
